:03000000020911E1
:0C091100787FE4F6D8FD75810A02089298
:1008E50058696E206368616F004C65776C657700A9
:10080000EF1392A0EFC3131392A1EF1313543F13EE
:1008100092A2EF131313541F1392A3EFC4540F1398
:1008200092A4EFC41354071392A5EFC413135403F7
:0E0830001392A6EFC413131354011392A722C0
:1008B3007F031208F57F381208F57F061208F57FCB
:0908C3000C1208F57F010208F592
:0E08F500C2B012083EC2B27F0A7E000208495D
:0E090300D2B012083EC2B27F0A7E000208493E
:10086F008B088A09890AAB08AA09A90A1208CCFFC2
:10087F0060101209037401250AF50AE43509F50918
:03088F0080E422E0
:100892001208B37F801208F57BFF7A0879E5120807
:1008A2006F7FC01208F57BFF7A0879EE12086F801D
:0108B200E263
:0B083E00C2B1D2B21208007F0A7E0097
:10084900E4FDFCC3ED9FEE6480F8EC6480985015DC
:10085900E4FBFA0BBB00010AEB647B4A70F50DBDA2
:0508690000010C80DE1F
:01086E002267
:1008CC00BB010689828A83E0225002E722BBFE022A
:0908DC00E32289828A83E493225D
:00000001FF
