:03000000020800F3
:0C080000787FE4F6D8FD75811B020847E4
:0B0A5A004B45595041442034583400F3
:100A170010083132334134353642373839432A30BA
:050A270023440118004A
:1008D600EF1392A0EFC3131392A1EF1313543F1318
:1008E60092A2EF131313541F1392A3EFC4540F13C2
:1008F60092A4EFC41354071392A5EFC41313540321
:0E0906001392A6EFC413131354011392A722E9
:1009E5007F03120A3E7F38120A3E7F06120A3E7FB7
:0909F5000C120A3E7F01020A3EC9
:0E0A3E00C2B0120948C2B27F0A7E00020953FC
:0E0A4C00D2B0120948C2B27F0A7E00020953DE
:1009A2008B198A1A891BAB19AA1AA91B1209FEFFF5
:1009B2006010120A4C7401251BF51BE4351AF51A56
:0309C20080E422AC
:0B094800C2B1D2B21208D67F0A7E00B6
:10095300E4FDFCC3ED9FEE6480F8EC6480985015D1
:10096300E4FBFA0BBB00010AEB647B4A70F50DBD97
:0509730000010C80DE14
:01097800225C
:100914002091047F0180027F002090047E018002E8
:100924007E00EE4FFF2092047E0180027E00EE4F97
:10093400FF2093047E0180027E00EE4F60037F015E
:04094400227F0022EC
:1009C500D297D296D295D294EF7003C29722BF01E7
:1009D50003C29622BF0203C29522BF0302C294221C
:10088C00C297C296C295C294120914EF64017037D4
:10089C007F01FE120953120914EF64017029FEAF97
:1008AC00061209C520900474088013209104740C5E
:1008BC00800C2092047410800520930774142EF879
:0908CC00E6FF220EBE04D87F00F5
:0108D5002200
:100A2D00C297C296C295C294D290D291D292D293CD
:010A3D002296
:100979001209E5120A2D7F81120A3E7BFF7A0A7954
:100989005A1209A212088C8F18E51860F77FC01255
:090999000A3EAF18120A4C80EB73
:10080C00020979E493A3F8E493A34003F68001F280
:10081C0008DFF48029E493A3F85407240CC8C333ED
:10082C00C4540F4420C8834004F456800146F6DFBC
:10083C00E4800B0102040810204080900A17E47E2B
:10084C00019360BCA3FF543F30E509541FFEE493B1
:10085C00A360010ECF54C025E060A840B8E493A378
:10086C00FAE493A3F8E493A3C8C582C8CAC583CAA3
:10087C00F0A3C8C582C8CAC583CADFE9DEE780BE5B
:010A2C0000C9
:1009FE00BB010689828A83E0225002E722BBFE02F7
:090A0E00E32289828A83E4932229
:00000001FF
