:03000000020800F3
:0C080000787FE4F6D8FD758113020847EC
:0C0923000A0AC0F9A4B0999282F88090F2
:10088C00EF1392A0EFC3131392A1EF1313543F1362
:10089C0092A2EF131313541F1392A3EFC4540F130C
:1008AC0092A4EFC41354071392A5EFC4131354036B
:0E08BC001392A6EFC413131354011392A72234
:1008CA0020900B3090FD0509E50970020508D3E573
:1008DA00099409E508648094804005E4F508F5095F
:1008EA00740A2509F8E6FF12088C7F0A7E001208AE
:0308FA00FD80CDB1
:1008FD00E4FDFCC3ED9FEE6480F8EC648098501528
:10090D00E4FBFA0BBB00010AEB647B4A70F50DBDED
:05091D0000010C80DE6A
:0109220022B2
:10080C000208CAE493A3F8E493A34003F68001F230
:10081C0008DFF48029E493A3F85407240CC8C333ED
:10082C00C4540F4420C8834004F456800146F6DFBC
:10083C00E4800B0102040810204080900923E47E20
:10084C00019360BCA3FF543F30E509541FFEE493B1
:10085C00A360010ECF54C025E060A840B8E493A378
:10086C00FAE493A3F8E493A3C8C582C8CAC583CAA3
:10087C00F0A3C8C582C8CAC583CADFE9DEE780BE5B
:01092F0000C7
:00000001FF
