:03000000020B2FC1
:0C0B2F00787FE4F6D8FD758117020B1CDE
:100A6F00D2A15389F0438901D2A9D2AFEF24E8F57F
:100A7F0011EE34FFF5107C007D021208008E0A8FF4
:100A8F000BC3E511950BF509E510950AF508AB07B2
:100A9F00AA06EA3395E0F9F8C3E49BFFE49AFE74E3
:100AAF000199FDE498FC78081209538E128F13EA0E
:100ABF003395E0F9F8C3E49BFFE49A740199E49845
:100ACF00E4F5148F15AE08AF09AB07AA06EA339504
:100ADF00E0F9F8C3E49BFFE49AFE740199FDE498F2
:100AEF00FC78081209538E0C8F0DC3E49BFFE4F5BD
:0A0AFF000E8F0F85138C85158A22D7
:030B3B00D28C2237
:030B3E00C28C2244
:1009BC00AB07AA06EB4A7005C2A1C2A922EB64647C
:1009CC004A7005D2A1C2A922AE10AF11EE3395E048
:1009DC00FDFCC006C007EA3395E0F9F8D007D00655
:1009EC00120836E47B64FAF9F81208C18E0A8F0BF0
:1009FC00C3E511950BF509E510950AF508AB07AAA7
:100A0C0006EA3395E0F9F8C3E49BFFE49AFE74011F
:100A1C0099FDE498FC78081209538E128F13EA336F
:100A2C0095E0F9F8C3E49BFFE49A740199E498E427
:100A3C00F5148F15AE08AF09AB07AA06EA3395E09B
:100A4C00F9F8C3E49BFFE49AFE740199FDE498FC69
:100A5C0078081209538E0C8F0DC3E49BFFE4F50E3E
:030A6C008F0F22C7
:03000B00020B09DC
:100B0900B2A120A107850D8C850F8A3285138C85AA
:030B1900158A3208
:100B1C007F647E00120A6F7F507E001209BC120B9C
:030B2C003B80ED1E
:10080000C2D5EC30E709B2D5E4C39DFDE49CFCEE13
:1008100030E715B2D5E4C39FFFE49EFE120967C31B
:10082000E49DFDE49CFC800312096730D507C3E416
:060830009FFFE49EFE2282
:10083600E88FF0A4CC8BF0A42CFCE98EF0A42CFC61
:100846008AF0EDA42CFCEA8EF0A4CDA8F08BF0A4DF
:100856002DCC3825F0FDE98FF0A42CCD35F0FCEB3E
:100866008EF0A4FEA9F0EB8FF0A4CFC5F02ECD3903
:0F087600FEE43CFCEAA42DCE35F0FDE43CFC2270
:1008850075F008758200EF2FFFEE33FECD33CDCC2A
:1008950033CCC58233C5829BED9AEC99E5829840AD
:1008A5000CF582EE9BFEED9AFDEC99FC0FD5F0D68A
:1008B500E4CEFBE4CDFAE4CCF9A88222B800C1B9B4
:1008C5000059BA002DEC8BF084CFCECDFCE5F0CBF2
:1008D500F97818EF2FFFEE33FEED33FDEC33FCEB2B
:1008E50033FB10D703994004EB99FB0FD8E5E4F9E6
:1008F500FA227818EF2FFFEE33FEED33FDEC33FCD3
:10090500C933C910D7059BE99A4007EC9BFCE99AC6
:10091500F90FD8E0E4C9FAE4CCFB2275F010EF2F0B
:10092500FFEE33FEED33FDCC33CCC833C810D7070B
:100935009BEC9AE899400AED9BFDEC9AFCE899F846
:0E0945000FD5F0DAE4CDFBE4CCFAE4C8F922D9
:10095300E86010ECA2E713FCED13FDEE13FEEF13BA
:04096300FFD8F022A7
:10096700BC000BBE0029EF8DF084FFADF022E4CC74
:10097700F875F008EF2FFFEE33FEEC33FCEE9DEC3D
:10098700984005FCEE9DFE0FD5F0E9E4CEFD22ED83
:10099700F8F5F0EE8420D21CFEADF075F008EF2FCD
:1009A700FFED33FD4007985006D5F0F222C398FDBE
:0509B7000FD5F0EA225B
:00000001FF
