:03000000020DB737
:0C0DB700787FE4F6D8FD758136020DFE51
:10101400730032300058696E206368616F0000000D
:0110240000CB
:100FFC001522434E005432005433005434005435FF
:07100C0000543600543700C8
:100E4300EF1392A0EFC3131392A1EF1313543F13A5
:100E530092A2EF131313541F1392A3EFC4540F134F
:100E630092A4EFC41354071392A5EFC413135403AE
:0E0E73001392A6EFC413131354011392A72277
:100FB3007F031210257F381210257F061210257F1C
:090FC3000C1210257F010210251B
:0E102500C2B0120E81C2B27F0A7E00020E8C93
:0A0FCC008F08E508C4540F2430FF1D
:0E0FD600D2B0120E81C2B27F0A7E00020E8CD3
:100F32008B0C8A0D890EAB0CAA0DA90E120C52FF56
:100F42006010120FD67401250EF50EE4350DF50D65
:030F520080E42216
:09103300C290D291D290C2912228
:09103C00C290C291D290D291221F
:09104500C290D291D290C2912216
:0E0FE40054FEFF120EE0120FF2AF02120EE0EA
:0A0FF200C290D291D2902091FD220E
:07104E00C290D291D2902262
:020EE000AD075C
:100EE200E4FCC2907E007480A804088006CEA2E7CB
:100EF20013CE13D8F8FFEDFBEF5B6003D38001C381
:080F02009291D2900CBC08DAB8
:010F0A0022C4
:100F9700E4FFFEC290D29030910DA80674800880BD
:0B0FA70002C313D8FC42070EBE08E88E
:010FB200221C
:100F7800AE078B82AA05121033EE120FE4AF82126D
:0F0F88000EE0120FF212103C7F0A7E00020E8C58
:040F55008F0CAA054E
:100F5900121033E50C120FE4120000E50C4401FFF6
:0F0F6900120EE0120FF2120F9712104E02103CF0
:100CE00078097C007D007BFF7A1079227E007F03EB
:100CF000120C2C7F811210257D027FD0120F55120D
:100D00000FCCE508120FD17F3A120FD67D017FD0AC
:100D1000120F55120FCCE508120FD17F3A120FD6E1
:100D2000E4FD7FD0120F55120FCCE508120FD17FD2
:100D30003A120FD67F8C1210257D037FD0120F55EB
:100D40008F08750FFF751010751114EF75F003A45F
:100D50002422F9E4F512F5138914FB7A00790912BB
:100D6000085C7B007A007909120F327FC1121025CE
:100D70007D047FD0120F55120FCCE508120FD17FE2
:100D80002F120FD67D057FD0120F55120FCCE5081C
:100D9000120FD17F2F120FD67D067FD0120F558FE5
:100DA000087BFF7A107916120F32120FCEE5085425
:070DB0000F2430FF020FD6F3
:100EB200120FB37F011210257F801210257BFF7A5B
:100EC200107919120F327FC87E00120E8C7F011228
:0E0ED2001025120CE07F2C7E01120E8C80F495
:0B0E8100C2B1D2B2120E437F0A7E0005
:100E8C00E4FDFCC3ED9FEE6480F8EC648098501593
:100E9C00E4FBFA0BBB00010AEB647B4A70F50DBD59
:050EAC0000010C80DED6
:010EB100221E
:100DC300020EB2E493A3F8E493A34003F68001F286
:100DD30008DFF48029E493A3F85407240CC8C33331
:100DE300C4540F4420C8834004F456800146F6DF00
:100DF300E4800B0102040810204080900FFCE47E85
:100E0300019360BCA3FF543F30E509541FFEE493F4
:100E1300A360010ECF54C025E060A840B8E493A3BB
:100E2300FAE493A3F8E493A3C8C582C8CAC583CAE6
:100E3300F0A3C8C582C8CAC583CADFE9DEE780BE9E
:0110130000DC
:100B5C00E709F608DFFA8046E709F208DFFA803E7B
:100B6C0088828C83E709F0A3DFFA8032E309F60868
:100B7C00DFFA8078E309F208DFFA807088828C83D0
:100B8C00E309F0A3DFFA806489828A83E0A3F60884
:100B9C00DFFA805889828A83E0A3F208DFFA804C5E
:100BAC0080D280FA80C680D4806980F28033801035
:100BBC0080A680EA809A80A880DA80E280CA80339E
:100BCC0089828A83ECFAE493A3C8C582C8CCC58316
:100BDC00CCF0A3C8C582C8CCC583CCDFE9DEE780E6
:100BEC000D89828A83E493A3F608DFF9ECFAA9F065
:100BFC00EDFB2289828A83ECFAE0A3C8C582C8CCBB
:100C0C00C583CCF0A3C8C582C8CCC583CCDFEADED3
:100C1C00E880DB89828A83E493A3F208DFF980CC35
:100C2C0088F0EF60010E4E60C388F0ED2402B4042E
:100C3C000050B9F582EB2402B4040050AF232345D5
:060C4C008223900BAC7343
:100C5200BB010689828A83E0225002E722BBFE02A0
:090C6200E32289828A83E49322D3
:10080000E51B240FF8E6051B22780C300702780F51
:10081000E475F001120CAA020C522000EB7F2ED2DC
:10082000008018EF540F2490D43440D4FF30040BD0
:10083000EF24BFB41A0050032461FFE51C600215C9
:100840001C051FE51F7002051E30070D780CE475AE
:10085000F001120CAAEF020C98020F0B7403D207DE
:100860008003E4C207F51B8B0C8A0D890EE4F51C8E
:10087000F51EF51FE51C60077F2012083B80F5750B
:100880001DFFC201C200C202C203C205C206C208E5
:10089000120809FF700D3007057F0012084CAF1FCA
:1008A000AE1E22B4255FC2D5C204120809FF24D0AF
:1008B000B40A00501A75F00A781C30D50508B6FF46
:1008C0000106C6A426F620D5047002D20380D924DE
:1008D000CFB41A00EF5004C2E5D204020A4CD20190
:1008E00080C6D20080C0D20280BCD2D580BAD205E8
:1008F00080B47F2012083B2002077401B51C004021
:10090000F1120800FF12083B020874D208D20680D8
:1009100095120800FB120800FA120800F94A4B7001
:1009200006791D7A0B7BFF20022EE51C602A7E00D3
:100930008E82758300120C6B60060EEE651D70F0E2
:10094000C2D5EBC0E0EAC0E0E9C0E0EE120A93D005
:10095000E0F9D0E0FAD0E0FB120C52FF60AAEBC045
:10096000E0EAC0E0E9C0E012083BD0E02401F9D0A1
:10097000E03400FAD0E0FBE51D0460DCD51DD98031
:10098000877BFF7A0A798FD202809C791080027966
:1009900008C206C2088008D2D5790A8004790AC242
:1009A000D5E51D047002F51DE4FAFDFEFF120800F6
:1009B000FC7B08200113120800FD7B1030000A1296
:1009C0000800FE120800FF7B20EC3382D592D55040
:1009D00013C3E43000069FFFE49EFEE42001039D64
:1009E000FDE49CFCE4CBF8C201EC700CCFCECDCC86
:1009F000E824F8F870F38017C3EF33FFEE33FEED11
:100A000033FDEC33FCEB33FB994002FB0FD8E9EBF1
:100A1000300105F8D0E0C448B201C0E00AEC4D4E08
:100A20004F78207B0070C2EAB51D0040BCC0E012C8
:100A30000A95D0F0D0E0200104C4C0E0C4B201C0E7
:100A4000F0120824D0F0D5F0EB020874120CBA09A9
:100A50001153098B5808E24C08DE42098F4F099761
:0F0A60004409974908F743099D550981460981C3
:100A6F00450981470B3D5008E62D08EA2E090D2B4D
:100A7F0008EE23090B200B262A08A64800000905BB
:100A8F003F3F3F00790AA2D5200314300509B91062
:100A9F00020404B9080104A2D52006025001042063
:100AAF0002689202B51C005034C0E07F2030031959
:100ABF007F30A20272067205500F120AECC202C2F8
:100ACF0006C205C2087F30800F300503E9C0E0126F
:100ADF00083B300503D0E0F9D0E0B51CCC3005174A
:100AEF007F30B9100C12083B7F583004077F788095
:100AFF0003B9080312083B3002057F2D02083B7F24
:100B0F00202008F87F2B2006F322920280CF286E38
:100B1F00756C6C2900D2011208003001F8C20178FF
:100B2F001C30D50108F60208A62D5043495812086B
:100B3F00002403B405004001E4900B389312082CF5
:0D0B4F00743A12082CD203751C0402098BA5
:100C6B00BB010CE58229F582E5833AF583E022503E
:100C7B0006E92582F8E622BBFE06E92582F8E22288
:0D0C8B00E58229F582E5833AF583E49322A2
:100C9800BB010689828A83F0225002F722BBFE013B
:020CA800F32235
:100CAA00FAE6FB0808E6F925F0F618E6CA3AF6224B
:100CBA00D083D082F8E4937012740193700DA3A3C9
:100CCA0093F8740193F5828883E4737402936860DD
:060CDA00EFA3A3A380DFDD
:100F0B00EFB40A07740D120F16740A309811A899D2
:100F1B00B8130CC2983098FDA899C298B811F63046
:070F2B0099FDC299F599221E
:00000001FF
