:0300000002109853
:0C109800787FE4F6D8FD75814D020F4012
:100F4000120DD31210DA1210797B097D087F14126A
:100F50000C697545167B087D137F04120D1980FE00
:10101F00E4FDFCC3ED9FEC9E50070DBD00010C805D
:01102F00F2CE
:01103000229D
:100F6000E4FDFCC3ED9FEC9E5015E4FBFA0BBB00C7
:0F0F7000010AEB647D4A70F50DBD00010C80E4B1
:010F7F00224F
:03100C00120FBF01
:10100F00D2A27F037E0012101FC2A27F3202101FD6
:100FBF00EF1392A4EFC3131392A5EF1313543F1320
:0C0FCF0092A6EF131313541F1392A722D5
:10103100AB07EBC4540FFF12100CAF03120FBF022A
:02104100100F8E
:0C10A4007F011210317F0A7E0002101F35
:100DD300E4FF120FBF7F147E00120F60C2A0C2A1F6
:100DE3007F0312100C7F057E00120F6012100F7F1D
:100DF300647E0012101F12100F7F02120FBF121019
:100E03000F7F281210317F0C1210317F0612103120
:050E13007F0102103117
:100F8000ED7006EF2480FA8004EF24C0FA7FE87E3B
:100F90000312101FAF021210317F327E0002101FA9
:100ED6002430FF120EF2AE4CAF4D7C007D0A120894
:0C0EE600CF7C007D0A1208CFED2430FF05
:080EF200D2A0121031C2A022AF
:100EFA008B468A478948AB46AA47A948120800FF89
:100F0A006010120EF274012548F548E43547F5479A
:030F1A0080E4224E
:100B90008E4C8F4DD3E54D9409E54C648094805084
:100BA00004EF020C62D3E54D9409E54C6480948017
:100BB000402DE54D9464E54C648094805021AE4C0A
:100BC000AF4D7C007D0A1208CFEF2430FF120EF2E9
:100BD000AE4CAF4D7C007D0A1208CFED020C62D303
:100BE000E54D9463E54C648094804029E54D94E89C
:100BF000E54C64809483501DAE4CAF4D7C007D6409
:100C00001208CFEF120ED6AE4CAF4D7C007D0A120B
:100C100008CFED804DD3E54D94E7E54C6480948397
:100C20004046E54D9410E54C648094A7503AAE4C94
:100C3000AF4D7C037DE81208CFEF2430FF120EF297
:100C4000AE4CAF4D7C007D641208CF7C007D0A1253
:100C500008CFED120ED6AE4CAF4D7C007D0A1208C7
:090C6000CFED2430FF120EF22248
:100E8600E4FDFCC3ED9FEE6480F8EC648098501797
:100E9600E4FBFA747B440060070BBB00010A80F395
:070EA6000DBD00010C80DC12
:010EAD002222
:100E1800EF1392A0EFC3131392A1EF1313543F13D0
:100E280092A2EF131313541F1392A3EFC4540F137A
:100E380092A4EFC41354071392A5EFC413135403D9
:0E0E48001392A6EFC413131354011392A722A2
:10104300C2B0C2B1D2B2120E18C2B27F0A7E00027F
:021053000E8607
:10105500D2B0C2B1D2B2120E18C2B27F0A7E00025D
:021065000E86F5
:100F1D008B498A4A894BAB49AA4AA94B120800FF53
:100F2D0060101210557401254BF54BE4354AF54A06
:030F3D0080E4222B
:100FDB007F031210437F381210437F061210437F9A
:090FEB000C1210437F01021043B7
:0710BC00D2811210C3D280A3
:0110C300220A
:0510DA00D280D281224A
:0D108B00D2801210C3C2811210C3C2802295
:0B10B0001210BCA2819201C280A201BC
:0110BB002212
:070FA000AD0712108B7FD09A
:100FA700E4FEEF339281D2801210C3C280EF25E0B6
:080FB700FF0EBE08ED0210B0B0
:0810C400C2811210BEC280229D
:0610D4001210BCC28022D4
:080EAE00E48FF0120930D201BB
:100EB600E4FFFE1210BCEF25E0FF3081034307017B
:0F0EC600C2800EBE08ED3001030210C41210D41A
:010ED50022FA
:0810CC00C2811210BED2812284
:10106700AC07120FA2AF04120FA7AF05120FA7020A
:0210770010CC9B
:100FF400120FA0AF05120FA712108B7FD1120FA7EB
:08100400C201120EB60210CC6D
:101079001210DAE4FF120FF4AD0753057FE4FF0203
:021089001067EE
:06094F008B218A2289239E
:10095500120FA2E4FF120FA712108B7FD1120FA75F
:10096500D201120EB6AB077A00D201120EB6752C63
:10097500008F2DC201120EB6752A008F2B1210CCD6
:1009850053037FEAC4F854F0C868FEEBC4540F481B
:10099500FF7C007D0A120868EB540F2FFFEC3EAB7D
:1009A50027AA28A9298FF0120930532D7F752C000D
:1009B500E52CC4F854F0C868FEE52DC4540F48FF73
:1009C500120868E52D540F2FFFEC3EAB24AA25A98C
:1009D500268FF0120930E52B30E64AAB2EAA2FA957
:1009E50030E475F00C120930E52B30E504D20080B7
:1009F50002C200532B1F752A00E52AC4F854F0C81B
:100A050068FEE52BC4540F48FF7C007D0A12086878
:100A1500E52B540F2FFFEC3EAB21AA22A9238FF023
:100A25001209308055AB2EAA2FA930E475F01812A3
:100A35000930532B3F752A00E52AC4F854F0C868DD
:100A4500FEE52BC4540F48FF7C007D0A120868E5BB
:100A55002B540F2FFFEC3EAB21AA22A9238FF012B6
:100A65000930AB21AA22A923120905C3940CE5F08C
:0C0A750094005004C2008002D200A200D5
:010A81002252
:100C69008E428F438C448D457C007D0AAF03AE02D2
:100C790012087AEFC4F8540FC868F582EEC454F02C
:100C890048F5837C007D0AAF03AE0212087AEC4571
:100C990083FAED4582FBAE44AF457C007D0A12081C
:100CA9007AEFC4F8540FC868F582EEC454F048F5D9
:100CB90083AE44AF457C007D0A12087AEC4583F582
:100CC90044ED4582F545AE42AF437C007D0A1208EA
:100CD9007AEFC4F8540FC868F582EEC454F048F5A9
:100CE90083AE42AF437C007D0A12087AEC4583F556
:100CF90042ED4582F543120FA2E4FF120FA7AF039D
:100D0900120FA7AF45120FA7AF43120FA70210CCBE
:100A82008B318A328933120FA27F03120FA7121001
:100A92008B7FD1120FA7D201120EB6AB31AA32A9A7
:100AA20033120EAEAB34AA35A936120EAEAB37AA4C
:100AB20038A939E48FF0120930C201120EB6AB3AEE
:100AC200AA3BA93CE48FF01209301210CCAB31AA38
:100AD20032A9331209055407FFE48FF0120930AB33
:100AE20034AA35A936120905543FFFE48FF01209E2
:100AF20030AB34AA35A936120905FBAAF0EAC4F8CC
:100B020054F0C868FEEBC4540F48FF7C007D0A1203
:100B12000868EB540F2FFFEC3EAB34AA358FF0126E
:100B22000930AB37AA38A939120905541FFFE48FDF
:100B3200F0120930AB37AA38A939120905FBAAF01D
:100B4200EAC4F854F0C868FEEBC4540F48FF120818
:100B520068EB540F2FFFEC3EAB37AA388FF0120927
:100B620030AB3AAA3BA93C120905FBAAF0EAC4F849
:100B720054F0C868FEEBC4540F48FF120868EB54E7
:0E0B82000F2FFFEC3EAB3AAA3B8FF00209307A
:100D1900AC07ED75F00A84C454F0FFED75F00A8450
:100D2900E5F04FFDEB75F00A84C454F0FFEB75F064
:100D39000A84E5F04FFBE54575F00A84C454F0FFD9
:100D4900E54575F00A84E5F04FF545ECD39401408B
:100D590005EC940840047C018000120FA27F031265
:100D69000FA7AF04120FA7AF05120FA7AF03120FFA
:090D7900A7AF45120FA70210CC30
:080E56008B1B8A1C891DAD07EE
:100E5E00E4FC120FA2AF05120FA7ECC3951E50159E
:100E6E00AB1BAA1CA91D8C82758300120819FF12D8
:080E7E000FA70C80E50210CC67
:060D82008B3E8A3F894010
:100D8800120FA0AF05120FA712108B7FD1120FA759
:100D9800E4FDE54114FFEDC39F5017D201120EB6D2
:100DA800AB3EAA3FA9408D82758300EF1208460D1D
:100DB80080E0C201120EB6AB3EAA3FA940AE058E36
:0B0DC80082758300EF1208460210CC79
:10080000BB010689828A83E0225002E722BBFE02F6
:09081000E32289828A83E4932229
:10081900BB010CE58229F582E5833AF583E0225094
:1008290006E92582F8E622BBFE06E92582F8E222DE
:0D083900E58229F582E5833AF583E49322F8
:10084600F8BB010DE58229F582E5833AF583E8F0E8
:10085600225006E92582C8F622BBFE05E92582C894
:02086600F2227C
:10086800EF8DF0A4A8F0CF8CF0A428CE8DF0A42EA4
:02087800FE225E
:10087A00BC000BBE0029EF8DF084FFADF022E4CC62
:10088A00F875F008EF2FFFEE33FEEC33FCEE9DEC2B
:10089A00984005FCEE9DFE0FD5F0E9E4CEFD22ED71
:1008AA00F8F5F0EE8420D21CFEADF075F008EF2FBB
:1008BA00FFED33FD4007985006D5F0F222C398FDAC
:0508CA000FD5F0EA2249
:1008CF00C2D5EC30E709B2D5E4C39DFDE49CFCEE44
:1008DF0030E715B2D5E4C39FFFE49EFE12087AC33A
:1008EF00E49DFDE49CFC800312087A30D507C3E435
:0608FF009FFFE49EFE22B3
:10090500BB010A89828A83E0F5F0A3E022500687BD
:10091500F009E71922BBFE07E3F5F009E31922897F
:0B092500828A83E493F5F074019322B2
:10093000BB010A89828A83F0E5F0A3F0225006F712
:0F09400009A7F01922BBFE06F3E5F009F319220F
:00000001FF
