:03000000020AB041
:0C0AB000787FE4F6D8FD758114020AF787
:0C0BCA000A08C0F9A4B0999282F880904B
:100B3C00EF1392A0EFC3131392A1EF1313543F13AF
:100B4C0092A2EF131313541F1392A3EFC4540F1359
:100B5C0092A4EFC41354071392A5EFC413135403B8
:0E0B6C001392A6EFC413131354011392A72281
:100BB800C2B0C2B2D2B220B3FDC2B1AF907E00D2F1
:010BC800B17B
:010BC9002209
:100A0A00120BB88E128F137C007D6412095FAC063C
:100A1A00AD07EC1208A57BCD7ACC794C7842120846
:100A2A00031208DE8F14D280EF3395E0FE7C037D3B
:100A3A00E8120B82C280D281AF14EF3395E0FE7CBC
:100A4A00037DE81209717F64120B7AC281D282AFE8
:100A5A0014EF3395E0FE7C037DE81209717E007F76
:100A6A0064CFCDCFCECCCE1209717F0A120B7AC2D7
:100A7A0082D283AF14EF3395E0FE7C037DE812093E
:100A8A00717E007F64CFCDCFCECCCE1209717E00AD
:100A9A007F0ACFCDCFCECCCE12097174082D120B9E
:060AAA0088C283020A0A63
:100B7A007E00CFCDCFCECCCE12097174082FF8E605
:080B8A00FF120B3C7F0A7E0004
:100B9200E4FDFCC3ED9FEE6480F8EC648098501590
:100BA200E4FBFA0BBB00010AEB647B4A70F50DBD56
:050BB20000010C80DED3
:010BB700221B
:10080000020954EC5D046005E85904700302094ACA
:10081000120915580460F6EC4860F2EC7004FDFE15
:10082000FF22C860DB2481C85009C39860025006CB
:100830000209519850CAF582E9294B4A7005AB82EA
:1008400002094075F0007C1A7880C3EF9BEE9AEDA8
:1008500099400DC3EF9BFFEE9AFEED99FDE842F043
:10086000DC23ACF0D0E0FFD0E0FED0E0FDAB822096
:10087000E7101BEB60BAEC2CFCEF33FFEE33FEED20
:1008800033FD02092CE803F830E705C0F075F000ED
:10089000EF2FFFEE33FEED33FD40B830E7C280AA04
:1008A00075F020800E75F010800575F0087D007ED3
:1008B000007F003392D530D5031209A7EC334010E6
:1008C000EF33FFEE33FEED33FDEC33FCD5F0ED22DC
:0E08D000E5F0247EA2D513CC92E7CDCEFF2218
:1008DE00EDD2E7CD33EC3392D524814006E4FFFE12
:1008EE00FDFC22FCE4CFCECDCC24E0501174FF8071
:1008FE00EDC3CC13CCCD13CDCE13CECF13CF04700E
:07090E00F030D5DE0209A75D
:10091500E9D2E7C933E833F892D5EDD2E7CD33EC28
:0709250033FC5002B2D522A1
:10092C00EC30E7100FBF000C0EBE00080DBD00042C
:10093C000BEB6014A2D5EB13FCED92E7FD2274FFD8
:10094C00FCFDFEFF22E480F8A2D574FF13FC7D8031
:03095C00E480EF45
:100ABC00020A0AE493A3F8E493A34003F68001F23C
:100ACC0008DFF48029E493A3F85407240CC8C3333B
:100ADC00C4540F4420C8834004F456800146F6DF0A
:100AEC00E4800B0102040810204080900BCAE47EC5
:100AFC00019360BCA3FF543F30E509541FFEE493FF
:100B0C00A360010ECF54C025E060A840B8E493A3C5
:100B1C00FAE493A3F8E493A3C8C582C8CAC583CAF0
:100B2C00F0A3C8C582C8CAC583CADFE9DEE780BEA8
:010BD600001E
:10095F00EF8DF0A4A8F0CF8CF0A428CE8DF0A42EAC
:02096F00FE2266
:10097100C2D5EC30E709B2D5E4C39DFDE49CFCEEA1
:1009810030E715B2D5E4C39FFFE49EFE1209B5C35B
:10099100E49DFDE49CFC80031209B530D507C3E456
:0609A1009FFFE49EFE2210
:0E09A700C3E49FFFE49EFEE49DFDE49CFC2261
:1009B500BC000BBE0029EF8DF084FFADF022E4CC26
:1009C500F875F008EF2FFFEE33FEEC33FCEE9DECEF
:1009D500984005FCEE9DFE0FD5F0E9E4CEFD22ED35
:1009E500F8F5F0EE8420D21CFEADF075F008EF2F7F
:1009F500FFED33FD4007985006D5F0F222C398FD70
:050A05000FD5F0EA220C
:00000001FF
