:03000000020944AE
:0C094400787FE4F6D8FD75810F02089C56
:100919004E686170206B69207475207468756F6EFC
:0A092900673A20003D3E000D0A0071
:10093300C29FD29E758920758DFDD28ED299D29C8D
:010943002291
:080950003099FDC2998F992234
:0608F9008B0C8A0D890E34
:1008FF00E4FEAB0CAA0DA90E8E82758300120800C0
:09090F00FF60061209500E80E998
:0109180022BC
:06095800A298E433FF2227
:05095E00C298AF9922D0
:1008D2008F0B8E0A8D098C08E47B19FAF9F812083D
:1008E2002D8F0B8E0A8D098C08780874FF12087EF2
:0708F200EC4D4E4F70F322A4
:10089C001209337BFF7A0979191208F9120958EFFA
:1008AC0060FA12095E8F0F74E0250FF50F7BFF7A4B
:1008BC0009792D1208F9AF0F1209507BFF7A0979CB
:0608CC00301208F980CD96
:10080000BB010CE58229F582E5833AF583E02250AD
:1008100006E92582F8E622BBFE06E92582F8E222F7
:0D082000E58229F582E5833AF583E4932211
:10082D00E88FF0A4CC8BF0A42CFCE98EF0A42CFC6A
:10083D008AF0EDA42CFCEA8EF0A4CDA8F08BF0A4E8
:10084D002DCC3825F0FDE98FF0A42CCD35F0FCEB47
:10085D008EF0A4FEA9F0EB8FF0A4CFC5F02ECD390C
:0F086D00FEE43CFCEAA42DCE35F0FDE43CFC2279
:10087C007401FF3395E0FEFDFC080808E6CF2FF667
:10088C0018E6CE3EF618E6CD3DF618E6CC3CF62240
:00000001FF
