:0300000002087182
:0C087100787FE4F6D8FD758108020800CD
:10080000758920758DFD759850D28E309807859921
:1008100008C29880F6E50824CFB40800504E90082E
:100820002C75F003A4C58325F0C583730208440228
:10083000084902084E02085302085802085D0208DF
:100840006202086775A0FE80C275A0FC80BD75A01D
:10085000F880B875A0F080B375A0E080AE75A0C038
:1008600080A975A08080A4E4F5A0809F75A0FF807A
:010870009AED
:00000001FF
