:03000000020800F3
:0C080000787FE4F6D8FD758118020847E7
:1008DA000808FF0100EEEE0001FF081001020408FB
:0708EA0010204080011800FE
:10088C00E4F51874082518F8E6F5B074102518F876
:10089C00E6F5A07F017E001208B4E4F5A00518E58A
:0808AC0018C3940840DD80D858
:1008B400E4FDFCC3ED9FEE6480F8EC648098501571
:1008C400E4FBFA0BBB00010AEB647B4A70F50DBD37
:0508D40000010C80DEB4
:0108D90022FC
:10080C0002088CE493A3F8E493A34003F68001F26E
:10081C0008DFF48029E493A3F85407240CC8C333ED
:10082C00C4540F4420C8834004F456800146F6DFBC
:10083C00E4800B01020408102040809008DAE47E6A
:10084C00019360BCA3FF543F30E509541FFEE493B1
:10085C00A360010ECF54C025E060A840B8E493A378
:10086C00FAE493A3F8E493A3C8C582C8CAC583CAA3
:10087C00F0A3C8C582C8CAC583CADFE9DEE780BE5B
:0108F1000006
:00000001FF
