:03000000020800F3
:0C080000787FE4F6D8FD758113020847EC
:0C09D1000A0AC0F9A4B0999282F8809044
:10096300EF1392A0EFC3131392A1EF1313543F138A
:1009730092A2EF131313541F1392A3EFC4540F1334
:1009830092A4EFC41354071392A5EFC41313540393
:0E0993001392A6EFC413131354011392A7225C
:1009170020900B3090FD0509E50970020508D3E525
:10092700099463E508648094804005E4F508F509B7
:10093700D2B0AE08AF097C007D0A12088C740A2D6C
:100947001209A1C2B1D2B1AE08AF097C007D0A126B
:0C095700088C740A2F1209A1C2B080B4F1
:0A09A100F8E6FF1209637F027E00F2
:1009AB00E4FDFCC3ED9FEE6480F8EC648098501579
:1009BB00E4FBFA0BBB00010AEB647B4A70F50DBD3F
:0509CB0000010C80DEBC
:0109D0002204
:10080C00020917E493A3F8E493A34003F68001F2E2
:10081C0008DFF48029E493A3F85407240CC8C333ED
:10082C00C4540F4420C8834004F456800146F6DFBC
:10083C00E4800B01020408102040809009D1E47E72
:10084C00019360BCA3FF543F30E509541FFEE493B1
:10085C00A360010ECF54C025E060A840B8E493A378
:10086C00FAE493A3F8E493A3C8C582C8CAC583CAA3
:10087C00F0A3C8C582C8CAC583CADFE9DEE780BE5B
:0109DD000019
:10088C00C2D5EC30E709B2D5E4C39DFDE49CFCEE87
:10089C0030E715B2D5E4C39FFFE49EFE1208C2C335
:1008AC00E49DFDE49CFC80031208C230D507C3E430
:0608BC009FFFE49EFE22F6
:1008C200BC000BBE0029EF8DF084FFADF022E4CC1A
:1008D200F875F008EF2FFFEE33FEEC33FCEE9DECE3
:1008E200984005FCEE9DFE0FD5F0E9E4CEFD22ED29
:1008F200F8F5F0EE8420D21CFEADF075F008EF2F73
:10090200FFED33FD4007985006D5F0F222C398FD63
:050912000FD5F0EA2200
:00000001FF
